{
  "address": "0xa4a9E0C8d35A0C770C792a127D54Bc624c018aa7",
  "abi": [
    {
      "inputs": [
        {
          "internalType": "address",
          "name": "_token",
          "type": "address"
        },
        {
          "internalType": "address",
          "name": "_voting",
          "type": "address"
        }
      ],
      "stateMutability": "nonpayable",
      "type": "constructor"
    },
    {
      "anonymous": false,
      "inputs": [
        {
          "indexed": true,
          "internalType": "address",
          "name": "owner",
          "type": "address"
        },
        {
          "indexed": false,
          "internalType": "address",
          "name": "wikipage",
          "type": "address"
        }
      ],
      "name": "WikiPageCreated",
      "type": "event"
    },
    {
      "inputs": [],
      "name": "baseToken",
      "outputs": [
        {
          "internalType": "address",
          "name": "",
          "type": "address"
        }
      ],
      "stateMutability": "view",
      "type": "function"
    },
    {
      "inputs": [
        {
          "internalType": "string",
          "name": "pagename",
          "type": "string"
        },
        {
          "internalType": "string",
          "name": "contentURL",
          "type": "string"
        }
      ],
      "name": "createWikiPage",
      "outputs": [
        {
          "internalType": "address",
          "name": "",
          "type": "address"
        }
      ],
      "stateMutability": "nonpayable",
      "type": "function"
    },
    {
      "inputs": [
        {
          "internalType": "bytes32",
          "name": "",
          "type": "bytes32"
        }
      ],
      "name": "getAddrByHash",
      "outputs": [
        {
          "internalType": "address",
          "name": "",
          "type": "address"
        }
      ],
      "stateMutability": "view",
      "type": "function"
    },
    {
      "inputs": [
        {
          "internalType": "address",
          "name": "",
          "type": "address"
        }
      ],
      "name": "isWikiAddr",
      "outputs": [
        {
          "internalType": "bool",
          "name": "",
          "type": "bool"
        }
      ],
      "stateMutability": "view",
      "type": "function"
    },
    {
      "inputs": [
        {
          "internalType": "string",
          "name": "str",
          "type": "string"
        }
      ],
      "name": "toLowercase",
      "outputs": [
        {
          "internalType": "string",
          "name": "",
          "type": "string"
        }
      ],
      "stateMutability": "pure",
      "type": "function"
    },
    {
      "inputs": [],
      "name": "voting",
      "outputs": [
        {
          "internalType": "address",
          "name": "",
          "type": "address"
        }
      ],
      "stateMutability": "view",
      "type": "function"
    },
    {
      "inputs": [
        {
          "internalType": "uint256",
          "name": "",
          "type": "uint256"
        }
      ],
      "name": "wikipages",
      "outputs": [
        {
          "internalType": "address",
          "name": "",
          "type": "address"
        }
      ],
      "stateMutability": "view",
      "type": "function"
    },
    {
      "inputs": [],
      "name": "wikipagesLength",
      "outputs": [
        {
          "internalType": "uint256",
          "name": "",
          "type": "uint256"
        }
      ],
      "stateMutability": "view",
      "type": "function"
    }
  ],
  "transactionHash": "0x90109cb54799abbb3c3a49c1c347a08888fb3cd2a9333d041be7973b4841b40b",
  "args": [
    "0x62580Cb24be3c19B20e77E92287b47D7af3518c9",
    "0xbd331950e413d10a24bCbC7308B72E9F3F1ce99d"
  ],
  "numDeployments": 1,
  "solcInputHash": "bf028f67671c637339e0cc46c97a7557",
  "bytecode": "0x608060405234801561001057600080fd5b50604051612e4c380380612e4c83398101604081905261002f9161007c565b600380546001600160a01b039384166001600160a01b031991821617909155600480549290931691161790556100af565b80516001600160a01b038116811461007757600080fd5b919050565b6000806040838503121561008f57600080fd5b61009883610060565b91506100a660208401610060565b90509250929050565b612d8e806100be6000396000f3fe60806040523480156200001157600080fd5b5060043610620000935760003560e01c806390b0acf1116200006257806390b0acf11462000140578063c55dae631462000152578063e0b45f001462000166578063fce1ccca146200019257600080fd5b80631dae05341462000098578063262e3c8214620000cc57806342e8a5fd14620000e357806350bb0884146200011a575b600080fd5b620000af620000a9366004620008a7565b620001a6565b6040516001600160a01b0390911681526020015b60405180910390f35b620000af620000dd36600462000912565b62000223565b62000109620000f43660046200092c565b60016020526000908152604090205460ff1681565b6040519015158152602001620000c3565b620001316200012b3660046200095e565b6200024e565b604051620000c39190620009ef565b600054604051908152602001620000c3565b600354620000af906001600160a01b031681565b620000af6200017736600462000912565b6002602052600090815260409020546001600160a01b031681565b600454620000af906001600160a01b031681565b600080620001b48462000645565b604051636902622f60e11b81529091506001600160a01b0382169063d204c45e90620001e7903390879060040162000a04565b600060405180830381600087803b1580156200020257600080fd5b505af115801562000217573d6000803e3d6000fd5b50929695505050505050565b600081815481106200023457600080fd5b6000918252602090912001546001600160a01b0316905081565b606060008290506000815167ffffffffffffffff811115620002745762000274620007fc565b6040519080825280601f01601f1916602001820160405280156200029f576020820181803683370190505b5090506000805b83518110156200047c576041848281518110620002c757620002c762000a2a565b016020015160f81c10801590620002fb5750605a848281518110620002f057620002f062000a2a565b016020015160f81c11155b15620003675783818151811062000316576200031662000a2a565b602001015160f81c60f81b60f81c602062000332919062000a56565b60f81b8382815181106200034a576200034a62000a2a565b60200101906001600160f81b031916908160001a905350620003b4565b8381815181106200037c576200037c62000a2a565b602001015160f81c60f81b8382815181106200039c576200039c62000a2a565b60200101906001600160f81b031916908160001a9053505b6061838281518110620003cb57620003cb62000a2a565b016020015160f81c10801590620003ff5750607a838281518110620003f457620003f462000a2a565b016020015160f81c11155b80620004515750601e8382815181106200041d576200041d62000a2a565b016020015160f81c10801590620004515750602783828151811062000446576200044662000a2a565b016020015160f81c11155b15620004675781620004638162000a7e565b9250505b80620004738162000aa0565b915050620002a6565b5060008160ff1611620004c65760405162461bcd60e51b815260206004820152600e60248201526d6d75737420626520612d7a302d3960901b604482015260640160405180910390fd5b60008160ff1667ffffffffffffffff811115620004e757620004e7620007fc565b6040519080825280601f01601f19166020018201604052801562000512576020820181803683370190505b5090506000805b8451811015620006395760418582815181106200053a576200053a62000a2a565b016020015160f81c108015906200056e5750605a85828151811062000563576200056362000a2a565b016020015160f81c11155b80620005c05750601e8582815181106200058c576200058c62000a2a565b016020015160f81c10801590620005c057506027858281518110620005b557620005b562000a2a565b016020015160f81c11155b156200062457848181518110620005db57620005db62000a2a565b01602001516001600160f81b0319168383620005f78162000aa0565b9450815181106200060c576200060c62000a2a565b60200101906001600160f81b031916908160001a9053505b80620006308162000aa0565b91505062000519565b50909695505050505050565b60008030836040516020016200065d92919062000a04565b60408051601f198184030181529181528151602092830120600081815260029093529120549091506001600160a01b031615620006b2576000908152600260205260409020546001600160a01b031692915050565b60408051306020820152339181019190915260009060600160405160208183030381529060405280519060200120843033600360009054906101000a90046001600160a01b03166040516200070790620007ee565b62000716949392919062000abc565b8190604051809103906000f590508015801562000737573d6000803e3d6000fd5b50600083815260026020908152604080832080546001600160a01b0386166001600160a01b031991821681179092558454600181810187557f290decd9548b62a8d60345a988386fc84ba6bc95484008f6362f93160ef3e5639091018054909216831790915581855280845293829020805460ff19169094179093555191825291925033917f80ec459c5cf05e564a45210151ad4b1c790b68a84a079a6220e6ba737921dd79910160405180910390a29392505050565b61225e8062000afb83390190565b634e487b7160e01b600052604160045260246000fd5b600082601f8301126200082457600080fd5b813567ffffffffffffffff80821115620008425762000842620007fc565b604051601f8301601f19908116603f011681019082821181831017156200086d576200086d620007fc565b816040528381528660208588010111156200088757600080fd5b836020870160208301376000602085830101528094505050505092915050565b60008060408385031215620008bb57600080fd5b823567ffffffffffffffff80821115620008d457600080fd5b620008e28683870162000812565b93506020850135915080821115620008f957600080fd5b50620009088582860162000812565b9150509250929050565b6000602082840312156200092557600080fd5b5035919050565b6000602082840312156200093f57600080fd5b81356001600160a01b03811681146200095757600080fd5b9392505050565b6000602082840312156200097157600080fd5b813567ffffffffffffffff8111156200098957600080fd5b620009978482850162000812565b949350505050565b6000815180845260005b81811015620009c757602081850181015186830182015201620009a9565b81811115620009da576000602083870101525b50601f01601f19169290920160200192915050565b6020815260006200095760208301846200099f565b6001600160a01b038316815260406020820181905260009062000997908301846200099f565b634e487b7160e01b600052603260045260246000fd5b634e487b7160e01b600052601160045260246000fd5b600060ff821660ff84168060ff0382111562000a765762000a7662000a40565b019392505050565b600060ff821660ff810362000a975762000a9762000a40565b60010192915050565b60006001820162000ab55762000ab562000a40565b5060010190565b60808152600062000ad160808301876200099f565b6001600160a01b039586166020840152938516604083015250921660609092019190915291905056fe60806040523480156200001157600080fd5b506040516200225e3803806200225e83398101604081905262000034916200023b565b604080518082018252600481526357494b4960e01b60208083019182528351808501909452600784526615d252d253919560ca1b9084015281519192916200007f9160009162000162565b5080516200009590600190602084019062000162565b505050620000b2620000ac6200010c60201b60201c565b62000110565b8351620000c790600c90602087019062000162565b50600980546001600160a01b039485166001600160a01b031991821617909155600a805493851693821693909317909255600b8054919093169116179055506200038d565b3390565b600780546001600160a01b038381166001600160a01b0319831681179093556040519116919082907f8be0079c531659141344cd1fd0a4f28419497f9722a3daafe3b4186f6b6457e090600090a35050565b828054620001709062000351565b90600052602060002090601f016020900481019282620001945760008555620001df565b82601f10620001af57805160ff1916838001178555620001df565b82800160010185558215620001df579182015b82811115620001df578251825591602001919060010190620001c2565b50620001ed929150620001f1565b5090565b5b80821115620001ed5760008155600101620001f2565b634e487b7160e01b600052604160045260246000fd5b80516001600160a01b03811681146200023657600080fd5b919050565b600080600080608085870312156200025257600080fd5b84516001600160401b03808211156200026a57600080fd5b818701915087601f8301126200027f57600080fd5b81518181111562000294576200029462000208565b604051601f8201601f19908116603f01168101908382118183101715620002bf57620002bf62000208565b81604052828152602093508a84848701011115620002dc57600080fd5b600091505b82821015620003005784820184015181830185015290830190620002e1565b82821115620003125760008484830101525b9750620003249150508782016200021e565b9450505062000336604086016200021e565b915062000346606086016200021e565b905092959194509250565b600181811c908216806200036657607f821691505b6020821081036200038757634e487b7160e01b600052602260045260246000fd5b50919050565b611ec1806200039d6000396000f3fe608060405234801561001057600080fd5b50600436106101735760003560e01c8063715018a6116100de578063b8d151ee11610097578063d204c45e11610071578063d204c45e1461033b578063e985e9c51461034e578063f2fde38b1461038a578063f686c30b1461039d57600080fd5b8063b8d151ee1461030d578063c55dae6314610315578063c87b56dd1461032857600080fd5b8063715018a6146102b35780638da5cb5b146102bb5780638dbdbe6d146102cc57806395d89b41146102df578063a22cb465146102e7578063b88d4fde146102fa57600080fd5b80633f180538116101305780633f1805381461021b57806342842e0e1461025457806342966c68146102675780634d853ee51461027a5780636352211e1461028d57806370a08231146102a057600080fd5b806301ffc9a71461017857806306fdde03146101a0578063081812fc146101b5578063095ea7b3146101e05780630ad58d2f146101f557806323b872dd14610208575b600080fd5b61018b6101863660046118c5565b6103b0565b60405190151581526020015b60405180910390f35b6101a8610402565b604051610197919061193a565b6101c86101c336600461194d565b610494565b6040516001600160a01b039091168152602001610197565b6101f36101ee366004611982565b6104bb565b005b6101f36102033660046119ac565b6105d5565b6101f36102163660046119e1565b610673565b610246610229366004611a1d565b600d60209081526000928352604080842090915290825290205481565b604051908152602001610197565b6101f36102623660046119e1565b6106a5565b6101f361027536600461194d565b6106c0565b600a546101c8906001600160a01b031681565b6101c861029b36600461194d565b6106f1565b6102466102ae366004611a49565b610751565b6101f36107d7565b6007546001600160a01b03166101c8565b6101f36102da3660046119ac565b6107eb565b6101a8610855565b6101f36102f5366004611a72565b610864565b6101f3610308366004611b35565b610873565b6101a86108a5565b600b546101c8906001600160a01b031681565b6101a861033636600461194d565b610933565b6101f3610349366004611bb1565b61093e565b61018b61035c366004611c13565b6001600160a01b03918216600090815260056020908152604080832093909416825291909152205460ff1690565b6101f3610398366004611a49565b6109b1565b6009546101c8906001600160a01b031681565b60006001600160e01b031982166380ac58cd60e01b14806103e157506001600160e01b03198216635b5e139f60e01b145b806103fc57506301ffc9a760e01b6001600160e01b03198316145b92915050565b60606000805461041190611c3d565b80601f016020809104026020016040519081016040528092919081815260200182805461043d90611c3d565b801561048a5780601f1061045f5761010080835404028352916020019161048a565b820191906000526020600020905b81548152906001019060200180831161046d57829003601f168201915b5050505050905090565b600061049f82610a27565b506000908152600460205260409020546001600160a01b031690565b60006104c6826106f1565b9050806001600160a01b0316836001600160a01b0316036105385760405162461bcd60e51b815260206004820152602160248201527f4552433732313a20617070726f76616c20746f2063757272656e74206f776e656044820152603960f91b60648201526084015b60405180910390fd5b336001600160a01b03821614806105545750610554813361035c565b6105c65760405162461bcd60e51b815260206004820152603e60248201527f4552433732313a20617070726f76652063616c6c6572206973206e6f7420746f60448201527f6b656e206f776e6572206e6f7220617070726f76656420666f7220616c6c0000606482015260840161052f565b6105d08383610a86565b505050565b6000838152600d60209081526040808320338452909152902054828110156106325760405162461bcd60e51b815260206004820152601060248201526f1dda5d1a191c985dce88185b5bdd5b9d60821b604482015260640161052f565b61063c8382611c8d565b6000858152600d60209081526040808320338452909152902055600b5461066d906001600160a01b03168385610af4565b50505050565b61067e335b82610b57565b61069a5760405162461bcd60e51b815260040161052f90611ca4565b6105d0838383610bd6565b6105d083838360405180602001604052806000815250610873565b6106c933610678565b6106e55760405162461bcd60e51b815260040161052f90611ca4565b6106ee81610d72565b50565b6000818152600260205260408120546001600160a01b0316806103fc5760405162461bcd60e51b8152602060048201526018602482015277115490cdcc8c4e881a5b9d985b1a59081d1bdad95b88125160421b604482015260640161052f565b60006001600160a01b0382166107bb5760405162461bcd60e51b815260206004820152602960248201527f4552433732313a2061646472657373207a65726f206973206e6f7420612076616044820152683634b21037bbb732b960b91b606482015260840161052f565b506001600160a01b031660009081526003602052604090205490565b6107df610d7b565b6107e96000610dd5565b565b6000838152600d602090815260408083206001600160a01b038086168552925290912054600b5490916108219116333086610e27565b61082b8382611cf2565b6000948552600d602090815260408087206001600160a01b03909516875293905291909320555050565b60606001805461041190611c3d565b61086f338383610e5f565b5050565b61087d3383610b57565b6108995760405162461bcd60e51b815260040161052f90611ca4565b61066d84848484610f2d565b600c80546108b290611c3d565b80601f01602080910402602001604051908101604052809291908181526020018280546108de90611c3d565b801561092b5780601f106109005761010080835404028352916020019161092b565b820191906000526020600020905b81548152906001019060200180831161090e57829003601f168201915b505050505081565b60606103fc82610f60565b6009546001600160a01b031633146109825760405162461bcd60e51b8152602060048201526007602482015266666163746f727960c81b604482015260640161052f565b600061098d60085490565b905061099d600880546001019055565b6109a78382611068565b6105d081836111aa565b6109b9610d7b565b6001600160a01b038116610a1e5760405162461bcd60e51b815260206004820152602660248201527f4f776e61626c653a206e6577206f776e657220697320746865207a65726f206160448201526564647265737360d01b606482015260840161052f565b6106ee81610dd5565b6000818152600260205260409020546001600160a01b03166106ee5760405162461bcd60e51b8152602060048201526018602482015277115490cdcc8c4e881a5b9d985b1a59081d1bdad95b88125160421b604482015260640161052f565b600081815260046020526040902080546001600160a01b0319166001600160a01b0384169081179091558190610abb826106f1565b6001600160a01b03167f8c5be1e5ebec7d5bd14f71427d1e84f3dd0314c0f7b2291e5b200ac8c7c3b92560405160405180910390a45050565b6040516001600160a01b0383166024820152604481018290526105d090849063a9059cbb60e01b906064015b60408051601f198184030181529190526020810180516001600160e01b03166001600160e01b031990931692909217909152611244565b600080610b63836106f1565b9050806001600160a01b0316846001600160a01b03161480610baa57506001600160a01b0380821660009081526005602090815260408083209388168352929052205460ff165b80610bce5750836001600160a01b0316610bc384610494565b6001600160a01b0316145b949350505050565b826001600160a01b0316610be9826106f1565b6001600160a01b031614610c4d5760405162461bcd60e51b815260206004820152602560248201527f4552433732313a207472616e736665722066726f6d20696e636f72726563742060448201526437bbb732b960d91b606482015260840161052f565b6001600160a01b038216610caf5760405162461bcd60e51b8152602060048201526024808201527f4552433732313a207472616e7366657220746f20746865207a65726f206164646044820152637265737360e01b606482015260840161052f565b610cba600082610a86565b6001600160a01b0383166000908152600360205260408120805460019290610ce3908490611c8d565b90915550506001600160a01b0382166000908152600360205260408120805460019290610d11908490611cf2565b909155505060008181526002602052604080822080546001600160a01b0319166001600160a01b0386811691821790925591518493918716917fddf252ad1be2c89b69c2b068fc378daa952ba7f163c4a11628f55a4df523b3ef91a4505050565b6106ee81611316565b6007546001600160a01b031633146107e95760405162461bcd60e51b815260206004820181905260248201527f4f776e61626c653a2063616c6c6572206973206e6f7420746865206f776e6572604482015260640161052f565b600780546001600160a01b038381166001600160a01b0319831681179093556040519116919082907f8be0079c531659141344cd1fd0a4f28419497f9722a3daafe3b4186f6b6457e090600090a35050565b6040516001600160a01b038085166024830152831660448201526064810182905261066d9085906323b872dd60e01b90608401610b20565b816001600160a01b0316836001600160a01b031603610ec05760405162461bcd60e51b815260206004820152601960248201527f4552433732313a20617070726f766520746f2063616c6c657200000000000000604482015260640161052f565b6001600160a01b03838116600081815260056020908152604080832094871680845294825291829020805460ff191686151590811790915591519182527f17307eab39ab6107e8899845ad3d59bd9653f200f220920489ca2b5937696c31910160405180910390a3505050565b610f38848484610bd6565b610f4484848484611356565b61066d5760405162461bcd60e51b815260040161052f90611d0a565b6060610f6b82610a27565b60008281526006602052604081208054610f8490611c3d565b80601f0160208091040260200160405190810160405280929190818152602001828054610fb090611c3d565b8015610ffd5780601f10610fd257610100808354040283529160200191610ffd565b820191906000526020600020905b815481529060010190602001808311610fe057829003601f168201915b50505050509050600061101b60408051602081019091526000815290565b9050805160000361102d575092915050565b81511561105f578082604051602001611047929190611d5c565b60405160208183030381529060405292505050919050565b610bce84611457565b6001600160a01b0382166110be5760405162461bcd60e51b815260206004820181905260248201527f4552433732313a206d696e7420746f20746865207a65726f2061646472657373604482015260640161052f565b6000818152600260205260409020546001600160a01b0316156111235760405162461bcd60e51b815260206004820152601c60248201527f4552433732313a20746f6b656e20616c7265616479206d696e74656400000000604482015260640161052f565b6001600160a01b038216600090815260036020526040812080546001929061114c908490611cf2565b909155505060008181526002602052604080822080546001600160a01b0319166001600160a01b03861690811790915590518392907fddf252ad1be2c89b69c2b068fc378daa952ba7f163c4a11628f55a4df523b3ef908290a45050565b6000828152600260205260409020546001600160a01b03166112255760405162461bcd60e51b815260206004820152602e60248201527f45524337323155524953746f726167653a2055524920736574206f66206e6f6e60448201526d32bc34b9ba32b73a103a37b5b2b760911b606482015260840161052f565b600082815260066020908152604090912082516105d0928401906117e0565b6000611299826040518060400160405280602081526020017f5361666545524332303a206c6f772d6c6576656c2063616c6c206661696c6564815250856001600160a01b03166114cb9092919063ffffffff16565b8051909150156105d057808060200190518101906112b79190611d8b565b6105d05760405162461bcd60e51b815260206004820152602a60248201527f5361666545524332303a204552433230206f7065726174696f6e20646964206e6044820152691bdd081cdd58d8d9595960b21b606482015260840161052f565b61131f816114da565b6000818152600660205260409020805461133890611c3d565b1590506106ee5760008181526006602052604081206106ee91611864565b60006001600160a01b0384163b1561144c57604051630a85bd0160e11b81526001600160a01b0385169063150b7a029061139a903390899088908890600401611da8565b6020604051808303816000875af19250505080156113d5575060408051601f3d908101601f191682019092526113d291810190611de5565b60015b611432573d808015611403576040519150601f19603f3d011682016040523d82523d6000602084013e611408565b606091505b50805160000361142a5760405162461bcd60e51b815260040161052f90611d0a565b805181602001fd5b6001600160e01b031916630a85bd0160e11b149050610bce565b506001949350505050565b606061146282610a27565b600061147960408051602081019091526000815290565b9050600081511161149957604051806020016040528060008152506114c4565b806114a384611575565b6040516020016114b4929190611d5c565b6040516020818303038152906040525b9392505050565b6060610bce8484600085611676565b60006114e5826106f1565b90506114f2600083610a86565b6001600160a01b038116600090815260036020526040812080546001929061151b908490611c8d565b909155505060008281526002602052604080822080546001600160a01b0319169055518391906001600160a01b038416907fddf252ad1be2c89b69c2b068fc378daa952ba7f163c4a11628f55a4df523b3ef908390a45050565b60608160000361159c5750506040805180820190915260018152600360fc1b602082015290565b8160005b81156115c657806115b081611e02565b91506115bf9050600a83611e31565b91506115a0565b60008167ffffffffffffffff8111156115e1576115e1611aa9565b6040519080825280601f01601f19166020018201604052801561160b576020820181803683370190505b5090505b8415610bce57611620600183611c8d565b915061162d600a86611e45565b611638906030611cf2565b60f81b81838151811061164d5761164d611e59565b60200101906001600160f81b031916908160001a90535061166f600a86611e31565b945061160f565b6060824710156116d75760405162461bcd60e51b815260206004820152602660248201527f416464726573733a20696e73756666696369656e742062616c616e636520666f6044820152651c8818d85b1b60d21b606482015260840161052f565b6001600160a01b0385163b61172e5760405162461bcd60e51b815260206004820152601d60248201527f416464726573733a2063616c6c20746f206e6f6e2d636f6e7472616374000000604482015260640161052f565b600080866001600160a01b0316858760405161174a9190611e6f565b60006040518083038185875af1925050503d8060008114611787576040519150601f19603f3d011682016040523d82523d6000602084013e61178c565b606091505b509150915061179c8282866117a7565b979650505050505050565b606083156117b65750816114c4565b8251156117c65782518084602001fd5b8160405162461bcd60e51b815260040161052f919061193a565b8280546117ec90611c3d565b90600052602060002090601f01602090048101928261180e5760008555611854565b82601f1061182757805160ff1916838001178555611854565b82800160010185558215611854579182015b82811115611854578251825591602001919060010190611839565b5061186092915061189a565b5090565b50805461187090611c3d565b6000825580601f10611880575050565b601f0160209004906000526020600020908101906106ee91905b5b80821115611860576000815560010161189b565b6001600160e01b0319811681146106ee57600080fd5b6000602082840312156118d757600080fd5b81356114c4816118af565b60005b838110156118fd5781810151838201526020016118e5565b8381111561066d5750506000910152565b600081518084526119268160208601602086016118e2565b601f01601f19169290920160200192915050565b6020815260006114c4602083018461190e565b60006020828403121561195f57600080fd5b5035919050565b80356001600160a01b038116811461197d57600080fd5b919050565b6000806040838503121561199557600080fd5b61199e83611966565b946020939093013593505050565b6000806000606084860312156119c157600080fd5b83359250602084013591506119d860408501611966565b90509250925092565b6000806000606084860312156119f657600080fd5b6119ff84611966565b9250611a0d60208501611966565b9150604084013590509250925092565b60008060408385031215611a3057600080fd5b82359150611a4060208401611966565b90509250929050565b600060208284031215611a5b57600080fd5b6114c482611966565b80151581146106ee57600080fd5b60008060408385031215611a8557600080fd5b611a8e83611966565b91506020830135611a9e81611a64565b809150509250929050565b634e487b7160e01b600052604160045260246000fd5b600067ffffffffffffffff80841115611ada57611ada611aa9565b604051601f8501601f19908116603f01168101908282118183101715611b0257611b02611aa9565b81604052809350858152868686011115611b1b57600080fd5b858560208301376000602087830101525050509392505050565b60008060008060808587031215611b4b57600080fd5b611b5485611966565b9350611b6260208601611966565b925060408501359150606085013567ffffffffffffffff811115611b8557600080fd5b8501601f81018713611b9657600080fd5b611ba587823560208401611abf565b91505092959194509250565b60008060408385031215611bc457600080fd5b611bcd83611966565b9150602083013567ffffffffffffffff811115611be957600080fd5b8301601f81018513611bfa57600080fd5b611c0985823560208401611abf565b9150509250929050565b60008060408385031215611c2657600080fd5b611c2f83611966565b9150611a4060208401611966565b600181811c90821680611c5157607f821691505b602082108103611c7157634e487b7160e01b600052602260045260246000fd5b50919050565b634e487b7160e01b600052601160045260246000fd5b600082821015611c9f57611c9f611c77565b500390565b6020808252602e908201527f4552433732313a2063616c6c6572206973206e6f7420746f6b656e206f776e6560408201526d1c881b9bdc88185c1c1c9bdd995960921b606082015260800190565b60008219821115611d0557611d05611c77565b500190565b60208082526032908201527f4552433732313a207472616e7366657220746f206e6f6e20455243373231526560408201527131b2b4bb32b91034b6b83632b6b2b73a32b960711b606082015260800190565b60008351611d6e8184602088016118e2565b835190830190611d828183602088016118e2565b01949350505050565b600060208284031215611d9d57600080fd5b81516114c481611a64565b6001600160a01b0385811682528416602082015260408101839052608060608201819052600090611ddb9083018461190e565b9695505050505050565b600060208284031215611df757600080fd5b81516114c4816118af565b600060018201611e1457611e14611c77565b5060010190565b634e487b7160e01b600052601260045260246000fd5b600082611e4057611e40611e1b565b500490565b600082611e5457611e54611e1b565b500690565b634e487b7160e01b600052603260045260246000fd5b60008251611e818184602087016118e2565b919091019291505056fea264697066735822122077914b8b54e6334ecfb0910da8a42844f91385b0dc14a2214d1ea789b661ba0164736f6c634300080e0033a264697066735822122086164b0bfd1b0f3a0dd267f3a6936444ac85985962640cc245f370504bfe309964736f6c634300080e0033",
  "devdoc": {
    "kind": "dev",
    "methods": {},
    "version": 1
  },
  "userdoc": {
    "kind": "user",
    "methods": {},
    "version": 1
  },
  "storageLayout": {
    "storage": [
      {
        "astId": 3228,
        "contract": "src/WikiFactory.sol:WikiFactory",
        "label": "wikipages",
        "offset": 0,
        "slot": "0",
        "type": "t_array(t_address)dyn_storage"
      },
      {
        "astId": 3232,
        "contract": "src/WikiFactory.sol:WikiFactory",
        "label": "isWikiAddr",
        "offset": 0,
        "slot": "1",
        "type": "t_mapping(t_address,t_bool)"
      },
      {
        "astId": 3236,
        "contract": "src/WikiFactory.sol:WikiFactory",
        "label": "getAddrByHash",
        "offset": 0,
        "slot": "2",
        "type": "t_mapping(t_bytes32,t_address)"
      },
      {
        "astId": 3238,
        "contract": "src/WikiFactory.sol:WikiFactory",
        "label": "baseToken",
        "offset": 0,
        "slot": "3",
        "type": "t_address"
      },
      {
        "astId": 3240,
        "contract": "src/WikiFactory.sol:WikiFactory",
        "label": "voting",
        "offset": 0,
        "slot": "4",
        "type": "t_address"
      }
    ],
    "types": {
      "t_address": {
        "encoding": "inplace",
        "label": "address",
        "numberOfBytes": "20"
      },
      "t_array(t_address)dyn_storage": {
        "base": "t_address",
        "encoding": "dynamic_array",
        "label": "address[]",
        "numberOfBytes": "32"
      },
      "t_bool": {
        "encoding": "inplace",
        "label": "bool",
        "numberOfBytes": "1"
      },
      "t_bytes32": {
        "encoding": "inplace",
        "label": "bytes32",
        "numberOfBytes": "32"
      },
      "t_mapping(t_address,t_bool)": {
        "encoding": "mapping",
        "key": "t_address",
        "label": "mapping(address => bool)",
        "numberOfBytes": "32",
        "value": "t_bool"
      },
      "t_mapping(t_bytes32,t_address)": {
        "encoding": "mapping",
        "key": "t_bytes32",
        "label": "mapping(bytes32 => address)",
        "numberOfBytes": "32",
        "value": "t_address"
      }
    }
  }
}